{"abi":[{"type":"constructor","inputs":[],"stateMutability":"nonpayable"},{"type":"function","name":"MAJOR","inputs":[],"outputs":[{"name":"","type":"uint256","internalType":"uint256"}],"stateMutability":"view"},{"type":"function","name":"MINOR","inputs":[],"outputs":[{"name":"","type":"uint256","internalType":"uint256"}],"stateMutability":"view"},{"type":"function","name":"PATCH","inputs":[],"outputs":[{"name":"","type":"uint256","internalType":"uint256"}],"stateMutability":"view"},{"type":"function","name":"UPGRADE_INTERFACE_VERSION","inputs":[],"outputs":[{"name":"","type":"string","internalType":"string"}],"stateMutability":"view"},{"type":"function","name":"blocksPerEpoch","inputs":[],"outputs":[{"name":"","type":"uint32","internalType":"uint32"}],"stateMutability":"view"},{"type":"function","name":"computeStakeTableComm","inputs":[{"name":"state","type":"tuple","internalType":"struct LightClient.LightClientState","components":[{"name":"viewNum","type":"uint64","internalType":"uint64"},{"name":"blockHeight","type":"uint64","internalType":"uint64"},{"name":"blockCommRoot","type":"uint256","internalType":"BN254.ScalarField"},{"name":"feeLedgerComm","type":"uint256","internalType":"BN254.ScalarField"},{"name":"stakeTableBlsKeyComm","type":"uint256","internalType":"BN254.ScalarField"},{"name":"stakeTableSchnorrKeyComm","type":"uint256","internalType":"BN254.ScalarField"},{"name":"stakeTableAmountComm","type":"uint256","internalType":"BN254.ScalarField"},{"name":"threshold","type":"uint256","internalType":"uint256"}]}],"outputs":[{"name":"","type":"bytes32","internalType":"bytes32"}],"stateMutability":"pure"},{"type":"function","name":"currentEpoch","inputs":[],"outputs":[{"name":"","type":"uint64","internalType":"uint64"}],"stateMutability":"view"},{"type":"function","name":"frozenStakeTableCommitment","inputs":[],"outputs":[{"name":"","type":"bytes32","internalType":"bytes32"}],"stateMutability":"view"},{"type":"function","name":"frozenThreshold","inputs":[],"outputs":[{"name":"","type":"uint256","internalType":"uint256"}],"stateMutability":"view"},{"type":"function","name":"getFinalizedState","inputs":[],"outputs":[{"name":"","type":"tuple","internalType":"struct LightClient.LightClientState","components":[{"name":"viewNum","type":"uint64","internalType":"uint64"},{"name":"blockHeight","type":"uint64","internalType":"uint64"},{"name":"blockCommRoot","type":"uint256","internalType":"BN254.ScalarField"},{"name":"feeLedgerComm","type":"uint256","internalType":"BN254.ScalarField"},{"name":"stakeTableBlsKeyComm","type":"uint256","internalType":"BN254.ScalarField"},{"name":"stakeTableSchnorrKeyComm","type":"uint256","internalType":"BN254.ScalarField"},{"name":"stakeTableAmountComm","type":"uint256","internalType":"BN254.ScalarField"},{"name":"threshold","type":"uint256","internalType":"uint256"}]}],"stateMutability":"view"},{"type":"function","name":"getGenesisState","inputs":[],"outputs":[{"name":"","type":"tuple","internalType":"struct LightClient.LightClientState","components":[{"name":"viewNum","type":"uint64","internalType":"uint64"},{"name":"blockHeight","type":"uint64","internalType":"uint64"},{"name":"blockCommRoot","type":"uint256","internalType":"BN254.ScalarField"},{"name":"feeLedgerComm","type":"uint256","internalType":"BN254.ScalarField"},{"name":"stakeTableBlsKeyComm","type":"uint256","internalType":"BN254.ScalarField"},{"name":"stakeTableSchnorrKeyComm","type":"uint256","internalType":"BN254.ScalarField"},{"name":"stakeTableAmountComm","type":"uint256","internalType":"BN254.ScalarField"},{"name":"threshold","type":"uint256","internalType":"uint256"}]}],"stateMutability":"view"},{"type":"function","name":"initialize","inputs":[{"name":"genesis","type":"tuple","internalType":"struct LightClient.LightClientState","components":[{"name":"viewNum","type":"uint64","internalType":"uint64"},{"name":"blockHeight","type":"uint64","internalType":"uint64"},{"name":"blockCommRoot","type":"uint256","internalType":"BN254.ScalarField"},{"name":"feeLedgerComm","type":"uint256","internalType":"BN254.ScalarField"},{"name":"stakeTableBlsKeyComm","type":"uint256","internalType":"BN254.ScalarField"},{"name":"stakeTableSchnorrKeyComm","type":"uint256","internalType":"BN254.ScalarField"},{"name":"stakeTableAmountComm","type":"uint256","internalType":"BN254.ScalarField"},{"name":"threshold","type":"uint256","internalType":"uint256"}]},{"name":"numBlocksPerEpoch","type":"uint32","internalType":"uint32"}],"outputs":[],"stateMutability":"nonpayable"},{"type":"function","name":"newFinalizedState","inputs":[{"name":"newState","type":"tuple","internalType":"struct LightClient.LightClientState","components":[{"name":"viewNum","type":"uint64","internalType":"uint64"},{"name":"blockHeight","type":"uint64","internalType":"uint64"},{"name":"blockCommRoot","type":"uint256","internalType":"BN254.ScalarField"},{"name":"feeLedgerComm","type":"uint256","internalType":"BN254.ScalarField"},{"name":"stakeTableBlsKeyComm","type":"uint256","internalType":"BN254.ScalarField"},{"name":"stakeTableSchnorrKeyComm","type":"uint256","internalType":"BN254.ScalarField"},{"name":"stakeTableAmountComm","type":"uint256","internalType":"BN254.ScalarField"},{"name":"threshold","type":"uint256","internalType":"uint256"}]},{"name":"proof","type":"tuple","internalType":"struct IPlonkVerifier.PlonkProof","components":[{"name":"wire0","type":"tuple","internalType":"struct BN254.G1Point","components":[{"name":"x","type":"uint256","internalType":"BN254.BaseField"},{"name":"y","type":"uint256","internalType":"BN254.BaseField"}]},{"name":"wire1","type":"tuple","internalType":"struct BN254.G1Point","components":[{"name":"x","type":"uint256","internalType":"BN254.BaseField"},{"name":"y","type":"uint256","internalType":"BN254.BaseField"}]},{"name":"wire2","type":"tuple","internalType":"struct BN254.G1Point","components":[{"name":"x","type":"uint256","internalType":"BN254.BaseField"},{"name":"y","type":"uint256","internalType":"BN254.BaseField"}]},{"name":"wire3","type":"tuple","internalType":"struct BN254.G1Point","components":[{"name":"x","type":"uint256","internalType":"BN254.BaseField"},{"name":"y","type":"uint256","internalType":"BN254.BaseField"}]},{"name":"wire4","type":"tuple","internalType":"struct BN254.G1Point","components":[{"name":"x","type":"uint256","internalType":"BN254.BaseField"},{"name":"y","type":"uint256","internalType":"BN254.BaseField"}]},{"name":"prodPerm","type":"tuple","internalType":"struct BN254.G1Point","components":[{"name":"x","type":"uint256","internalType":"BN254.BaseField"},{"name":"y","type":"uint256","internalType":"BN254.BaseField"}]},{"name":"split0","type":"tuple","internalType":"struct BN254.G1Point","components":[{"name":"x","type":"uint256","internalType":"BN254.BaseField"},{"name":"y","type":"uint256","internalType":"BN254.BaseField"}]},{"name":"split1","type":"tuple","internalType":"struct BN254.G1Point","components":[{"name":"x","type":"uint256","internalType":"BN254.BaseField"},{"name":"y","type":"uint256","internalType":"BN254.BaseField"}]},{"name":"split2","type":"tuple","internalType":"struct BN254.G1Point","components":[{"name":"x","type":"uint256","internalType":"BN254.BaseField"},{"name":"y","type":"uint256","internalType":"BN254.BaseField"}]},{"name":"split3","type":"tuple","internalType":"struct BN254.G1Point","components":[{"name":"x","type":"uint256","internalType":"BN254.BaseField"},{"name":"y","type":"uint256","internalType":"BN254.BaseField"}]},{"name":"split4","type":"tuple","internalType":"struct BN254.G1Point","components":[{"name":"x","type":"uint256","internalType":"BN254.BaseField"},{"name":"y","type":"uint256","internalType":"BN254.BaseField"}]},{"name":"zeta","type":"tuple","internalType":"struct BN254.G1Point","components":[{"name":"x","type":"uint256","internalType":"BN254.BaseField"},{"name":"y","type":"uint256","internalType":"BN254.BaseField"}]},{"name":"zetaOmega","type":"tuple","internalType":"struct BN254.G1Point","components":[{"name":"x","type":"uint256","internalType":"BN254.BaseField"},{"name":"y","type":"uint256","internalType":"BN254.BaseField"}]},{"name":"wireEval0","type":"uint256","internalType":"BN254.ScalarField"},{"name":"wireEval1","type":"uint256","internalType":"BN254.ScalarField"},{"name":"wireEval2","type":"uint256","internalType":"BN254.ScalarField"},{"name":"wireEval3","type":"uint256","internalType":"BN254.ScalarField"},{"name":"wireEval4","type":"uint256","internalType":"BN254.ScalarField"},{"name":"sigmaEval0","type":"uint256","internalType":"BN254.ScalarField"},{"name":"sigmaEval1","type":"uint256","internalType":"BN254.ScalarField"},{"name":"sigmaEval2","type":"uint256","internalType":"BN254.ScalarField"},{"name":"sigmaEval3","type":"uint256","internalType":"BN254.ScalarField"},{"name":"prodPermZetaOmegaEval","type":"uint256","internalType":"BN254.ScalarField"}]}],"outputs":[],"stateMutability":"nonpayable"},{"type":"function","name":"owner","inputs":[],"outputs":[{"name":"","type":"address","internalType":"address"}],"stateMutability":"view"},{"type":"function","name":"proxiableUUID","inputs":[],"outputs":[{"name":"","type":"bytes32","internalType":"bytes32"}],"stateMutability":"view"},{"type":"function","name":"renounceOwnership","inputs":[],"outputs":[],"stateMutability":"nonpayable"},{"type":"function","name":"states","inputs":[{"name":"index","type":"uint32","internalType":"uint32"}],"outputs":[{"name":"viewNum","type":"uint64","internalType":"uint64"},{"name":"blockHeight","type":"uint64","internalType":"uint64"},{"name":"blockCommRoot","type":"uint256","internalType":"BN254.ScalarField"},{"name":"feeLedgerComm","type":"uint256","internalType":"BN254.ScalarField"},{"name":"stakeTableBlsKeyComm","type":"uint256","internalType":"BN254.ScalarField"},{"name":"stakeTableSchnorrKeyComm","type":"uint256","internalType":"BN254.ScalarField"},{"name":"stakeTableAmountComm","type":"uint256","internalType":"BN254.ScalarField"},{"name":"threshold","type":"uint256","internalType":"uint256"}],"stateMutability":"view"},{"type":"function","name":"transferOwnership","inputs":[{"name":"newOwner","type":"address","internalType":"address"}],"outputs":[],"stateMutability":"nonpayable"},{"type":"function","name":"upgradeToAndCall","inputs":[{"name":"newImplementation","type":"address","internalType":"address"},{"name":"data","type":"bytes","internalType":"bytes"}],"outputs":[],"stateMutability":"payable"},{"type":"function","name":"votingStakeTableCommitment","inputs":[],"outputs":[{"name":"","type":"bytes32","internalType":"bytes32"}],"stateMutability":"view"},{"type":"function","name":"votingThreshold","inputs":[],"outputs":[{"name":"","type":"uint256","internalType":"uint256"}],"stateMutability":"view"},{"type":"event","name":"EpochChanged","inputs":[{"name":"","type":"uint64","indexed":false,"internalType":"uint64"}],"anonymous":false},{"type":"event","name":"Initialized","inputs":[{"name":"version","type":"uint64","indexed":false,"internalType":"uint64"}],"anonymous":false},{"type":"event","name":"NewState","inputs":[{"name":"viewNum","type":"uint64","indexed":true,"internalType":"uint64"},{"name":"blockHeight","type":"uint64","indexed":true,"internalType":"uint64"},{"name":"blockCommRoot","type":"uint256","indexed":false,"internalType":"BN254.ScalarField"}],"anonymous":false},{"type":"event","name":"OwnershipTransferred","inputs":[{"name":"previousOwner","type":"address","indexed":true,"internalType":"address"},{"name":"newOwner","type":"address","indexed":true,"internalType":"address"}],"anonymous":false},{"type":"event","name":"Upgrade","inputs":[{"name":"implementation","type":"address","indexed":false,"internalType":"address"}],"anonymous":false},{"type":"event","name":"Upgraded","inputs":[{"name":"implementation","type":"address","indexed":true,"internalType":"address"}],"anonymous":false},{"type":"error","name":"AddressEmptyCode","inputs":[{"name":"target","type":"address","internalType":"address"}]},{"type":"error","name":"ERC1967InvalidImplementation","inputs":[{"name":"implementation","type":"address","internalType":"address"}]},{"type":"error","name":"ERC1967NonPayable","inputs":[]},{"type":"error","name":"FailedInnerCall","inputs":[]},{"type":"error","name":"InvalidArgs","inputs":[]},{"type":"error","name":"InvalidInitialization","inputs":[]},{"type":"error","name":"InvalidProof","inputs":[]},{"type":"error","name":"MissingLastBlockForCurrentEpoch","inputs":[{"name":"expectedBlockHeight","type":"uint64","internalType":"uint64"}]},{"type":"error","name":"NotInitializing","inputs":[]},{"type":"error","name":"OutdatedState","inputs":[]},{"type":"error","name":"OwnableInvalidOwner","inputs":[{"name":"owner","type":"address","internalType":"address"}]},{"type":"error","name":"OwnableUnauthorizedAccount","inputs":[{"name":"account","type":"address","internalType":"address"}]},{"type":"error","name":"UUPSUnauthorizedCallContext","inputs":[]},{"type":"error","name":"UUPSUnsupportedProxiableUUID","inputs":[{"name":"slot","type":"bytes32","internalType":"bytes32"}]},{"type":"error","name":"WrongStakeTableUsed","inputs":[]}],"bytecode":{"object":"0x61014060405230608052600160a0819052600060c081905260e081905261010052610120523480156200003157600080fd5b506200003c62000042565b620000f6565b7ff0c57e16840df040f15088dc2f81fe391c3923bec73e23a9662efc9c229c6a00805468010000000000000000900460ff1615620000935760405163f92ee8a960e01b815260040160405180910390fd5b80546001600160401b0390811614620000f35780546001600160401b0319166001600160401b0390811782556040519081527fc7f505b2f371ae2175ee4913f4499e1f2633a7b5936321eed1cdaeb6115181d29060200160405180910390a15b50565b60805160a05160c05160e0516101005161012051612a5162000193600039600081816105c3015281816106ba015281816109d001528181610b6801528181610c1e01528181611116015281816119f801528181611a5a0152611abc0152600081816107b4015261103d015260006101410152600061027701526000610188015260008181610db201528181610ddb0152610f5a0152612a516000f3fe60806040526004361061012a5760003560e01c8063715018a6116100ab5780638da5cb5b1161006f5780638da5cb5b1461042a578063aa92273214610471578063ad3cb1cc14610491578063ca6fe855146104cf578063f0682054146104e5578063f2fde38b1461051757600080fd5b8063715018a6146102f7578063766718081461030c57806376b6b7cb1461034c5780637f17baad1461036257806382d07ff31461041557600080fd5b80634bc96225116100f25780634bc96225146102655780634f1ef2861461029957806352d1902d146102ac5780635420d15d146102c157806362827733146102e157600080fd5b8063057729e41461012f5780631c41cc5f14610176578063382b215a146101aa578063409939b7146101c05780634847ae5d146101e2575b600080fd5b34801561013b57600080fd5b506101637f000000000000000000000000000000000000000000000000000000000000000081565b6040519081526020015b60405180910390f35b34801561018257600080fd5b506101637f000000000000000000000000000000000000000000000000000000000000000081565b3480156101b657600080fd5b5061016360035481565b3480156101cc57600080fd5b506101e06101db366004612191565b610537565b005b3480156101ee57600080fd5b506101f76107a4565b60405161016d91906000610100820190506001600160401b038084511683528060208501511660208401525060408301516040830152606083015160608301526080830151608083015260a083015160a083015260c083015160c083015260e083015160e083015292915050565b34801561027157600080fd5b506101637f000000000000000000000000000000000000000000000000000000000000000081565b6101e06102a7366004612362565b61084f565b3480156102b857600080fd5b5061016361086e565b3480156102cd57600080fd5b506101e06102dc36600461241b565b61088b565b3480156102ed57600080fd5b5061016360025481565b34801561030357600080fd5b506101e06109ac565b34801561031857600080fd5b506000546103349064010000000090046001600160401b031681565b6040516001600160401b03909116815260200161016d565b34801561035857600080fd5b5061016360015481565b34801561036e57600080fd5b506103cf61037d366004612451565b600560208190526000918252604090912080546001820154600283015460038401546004850154958501546006909501546001600160401b0380861697600160401b9096041695939492939192919088565b604080516001600160401b03998a168152989097166020890152958701949094526060860192909252608085015260a084015260c083015260e08201526101000161016d565b34801561042157600080fd5b506101f76109c0565b34801561043657600080fd5b507f9016d09d72d40fdae2fd8ceac6b6234c7706214fd39c1cd1e609a0528c199300546040516001600160a01b03909116815260200161016d565b34801561047d57600080fd5b5061016361048c36600461246c565b610a6b565b34801561049d57600080fd5b506104c2604051806040016040528060058152602001640352e302e360dc1b81525081565b60405161016d91906124d9565b3480156104db57600080fd5b5061016360045481565b3480156104f157600080fd5b506000546105029063ffffffff1681565b60405163ffffffff909116815260200161016d565b34801561052357600080fd5b506101e06105323660046124ec565b610ab3565b61053f6109c0565b5182516001600160401b03918216911611158061057d575061055f6109c0565b602001516001600160401b031682602001516001600160401b031611155b1561059b5760405163051c46ef60e01b815260040160405180910390fd5b600080546105c19063ffffffff81169064010000000090046001600160401b031661251d565b7f000000000000000000000000000000000000000000000000000000000000000063ffffffff166000908152600560205260409020549091506001600160401b03808316600160401b90920416148015816106315750816001600160401b031684602001516001600160401b0316115b1561065f5760405163036466bf60e31b81526001600160401b03831660048201526024015b60405180910390fd5b61066c8460400151610af1565b6106798460600151610af1565b6106868460800151610af1565b6106938460a00151610af1565b6106a08460c00151610af1565b80156106ae576106ae610b61565b6106b88484610ce0565b7f000000000000000000000000000000000000000000000000000000000000000063ffffffff1660009081526005602081815260409283902087518154898401516001600160401b039283166fffffffffffffffffffffffffffffffff199092168217600160401b93909116928302178355898601516001840181905560608b0151600285015560808b0151600385015560a08b0151600485015560c08b01519584019590955560e08a01516006909301929092559351928352917fa04a773924505a418564363725f56832f5772e6b8d0dbd6efce724dfe803dae6910160405180910390a350505050565b6107ac611d46565b5063ffffffff7f00000000000000000000000000000000000000000000000000000000000000001660009081526005602081815260409283902083516101008101855281546001600160401b038082168352600160401b90910416928101929092526001810154938201939093526002830154606082015260038301546080820152600483015460a08201529082015460c082015260069091015460e082015290565b610857610da7565b61086082610e4c565b61086a8282610e8d565b5050565b6000610878610f4f565b50600080516020612a2583398151915290565b7ff0c57e16840df040f15088dc2f81fe391c3923bec73e23a9662efc9c229c6a008054600160401b810460ff1615906001600160401b03166000811580156108d05750825b90506000826001600160401b031660011480156108ec5750303b155b9050811580156108fa575080155b156109185760405163f92ee8a960e01b815260040160405180910390fd5b845467ffffffffffffffff19166001178555831561094257845460ff60401b1916600160401b1785555b61094b33610f98565b610953610fa9565b61095d8787610fb1565b83156109a357845460ff60401b19168555604051600181527fc7f505b2f371ae2175ee4913f4499e1f2633a7b5936321eed1cdaeb6115181d29060200160405180910390a15b50505050505050565b6109b4611257565b6109be60006112b2565b565b6109c8611d46565b5063ffffffff7f00000000000000000000000000000000000000000000000000000000000000001660009081526005602081815260409283902083516101008101855281546001600160401b038082168352600160401b90910416928101929092526001810154938201939093526002830154606082015260038301546080820152600483015460a08201529082015460c082015260069091015460e082015290565b60808082015160a083015160c0840151604080516020810194909452830191909152606082015260009101604051602081830303815290604052805190602001209050919050565b610abb611257565b6001600160a01b038116610ae557604051631e4fbdf760e01b815260006004820152602401610656565b610aee816112b2565b50565b7f30644e72e131a029b85045b68181585d2833e84879b9709143e1f593f000000181108061086a5760405162461bcd60e51b815260206004820152601b60248201527f426e3235343a20696e76616c6964207363616c6172206669656c6400000000006044820152606401610656565b63ffffffff7f000000000000000000000000000000000000000000000000000000000000000016600090815260056020818152604080842081516101008101835281546001600160401b038082168352600160401b90910416938101939093526001810154918301919091526002810154606083015260038101546080830152600481015460a08301529182015460c082015260069091015460e0820152610c0890610a6b565b60038054600190815590829055600480546002557f000000000000000000000000000000000000000000000000000000000000000063ffffffff16600090815260056020526040812060060154825580549394509192610c7a90849064010000000090046001600160401b0316612548565b82546101009290920a6001600160401b0381810219909316918316021790915560005460405164010000000090910490911681527fdb3558259e039d7e50e816b9dcce30fb114d8a9c86eca5ab14b60194d6945d3f91506020015b60405180910390a150565b6000610cea611323565b90506000610cf784611905565b60408051602081018252600081529051636cc7f72f60e01b815291925073__$5c5c07cf4f55be9472c2b47d897172e765$__91636cc7f72f91610d43918691869189919060040161278f565b602060405180830381865af4158015610d60573d6000803e3d6000fd5b505050506040513d601f19601f82011682018060405250810190610d8491906129b7565b610da1576040516309bde33960e01b815260040160405180910390fd5b50505050565b306001600160a01b037f0000000000000000000000000000000000000000000000000000000000000000161480610e2e57507f00000000000000000000000000000000000000000000000000000000000000006001600160a01b0316610e22600080516020612a25833981519152546001600160a01b031690565b6001600160a01b031614155b156109be5760405163703e46dd60e11b815260040160405180910390fd5b610e54611257565b6040516001600160a01b03821681527ff78721226efe9a1bb678189a16d1554928b9f2192e2cb93eeda83b79fa40007d90602001610cd5565b816001600160a01b03166352d1902d6040518163ffffffff1660e01b8152600401602060405180830381865afa925050508015610ee7575060408051601f3d908101601f19168201909252610ee4918101906129d9565b60015b610f0f57604051634c9c8ce360e01b81526001600160a01b0383166004820152602401610656565b600080516020612a258339815191528114610f4057604051632a87526960e21b815260048101829052602401610656565b610f4a8383611b1d565b505050565b306001600160a01b037f000000000000000000000000000000000000000000000000000000000000000016146109be5760405163703e46dd60e11b815260040160405180910390fd5b610fa0611b73565b610aee81611bbc565b6109be611b73565b81516001600160401b0316151580610fd5575060208201516001600160401b031615155b80610fe257506080820151155b80610fef575060a0820151155b80610ffc575060c0820151155b80611009575060e0820151155b80611018575063ffffffff8116155b15611036576040516350dd03f760e11b815260040160405180910390fd5b81600560007f000000000000000000000000000000000000000000000000000000000000000063ffffffff1663ffffffff16815260200190815260200160002060008201518160000160006101000a8154816001600160401b0302191690836001600160401b0316021790555060208201518160000160086101000a8154816001600160401b0302191690836001600160401b0316021790555060408201518160010155606082015181600201556080820151816003015560a0820151816004015560c0820151816005015560e0820151816006015590505081600560007f000000000000000000000000000000000000000000000000000000000000000063ffffffff1663ffffffff16815260200190815260200160002060008201518160000160006101000a8154816001600160401b0302191690836001600160401b0316021790555060208201518160000160086101000a8154816001600160401b0302191690836001600160401b0316021790555060408201518160010155606082015181600201556080820151816003015560a0820151816004015560c0820151816005015560e0820151816006015590505060008060046101000a8154816001600160401b0302191690836001600160401b03160217905550806000806101000a81548163ffffffff021916908363ffffffff160217905550600061123a83610a6b565b600181905560e09093015160028190556003939093555050600455565b336112897f9016d09d72d40fdae2fd8ceac6b6234c7706214fd39c1cd1e609a0528c199300546001600160a01b031690565b6001600160a01b0316146109be5760405163118cdaa760e01b8152336004820152602401610656565b7f9016d09d72d40fdae2fd8ceac6b6234c7706214fd39c1cd1e609a0528c19930080546001600160a01b031981166001600160a01b03848116918217845560405192169182907f8be0079c531659141344cd1fd0a4f28419497f9722a3daafe3b4186f6b6457e090600090a3505050565b61132b611d9d565b621000008152600860208201527f20c9403133dfde9a9d382df76fb0523571648725abc0a7c12830bb690ec83b336040820151527f03a0a9acc3e3815a7ed6cb1379f7d157e6343164729376392a693acbd3ec283c6020604083015101527f2866c18ad1df10ef13542cce6250ce02cb2a6b72ae00a9852e271187e9e4e0db6060820151527f21be232a42246a5663ebf483470cca666ffe9d4f0e63b929c596a7658714e9706020606083015101527f07d77873b9860074118e75808c79468b83c8ed64ba14db5cb5afa8e534de7b996080820151527f0be0f448839080132d47de17de0099b4cd74ae1e6b71cdda06cdebb868a50c6d6020608083015101527f13bd45a023491eadea44cc3f24cfbd1796eade9c0e39ee81d9f63ea0a580662560a0820151527f18f95cdda42ce11d9d10a3b335acc214e3807c578c5359405d810c208df60093602060a083015101527f0970d978763461f09e9ec63454073497386e4d282fedc2ac5b967cb9fd3fa8a960c0820151527f28c2217f7bacf6f8b2b8ee4a90fcf8b5bca04205ea84e8e1eb54b85dd41bde28602060c083015101527f02fe3d02988db718380052970aba46a3296df5f29b736ba1f2c4ccffc8b5969360e0820151527f202c3e390cee7c5c8525da2329a19f4936f6f71ca97dde6c6fa32b382d5acc03602060e083015101527f23ac10ae6ca5cacee8744bb939aaa835390954b91ae668a2c8d0edda558a89e7610100820151527f1c8c2b856cdade256ba3237f39afd5e170a9532012f7aecae49d459b29f6f6ad602061010083015101527f16ec03d260bd7ac1c50ffa63565d5274b4582ceea52ff40b81cdfe8f444f01e4610120820151527f29392152723097e07113c3d7786d245ec40c30928015cd50b5668a4f4ea17031602061012083015101527f2cdbfb3a4053c8489b0c94e74338ac19118df7a06bc56b1eb4d0e0dc4eae7248610140820151527f07fea127dae943b8dc148f1408d40cff465c9c4721943669b1e4fd5a39db7036602061014083015101527f031455a79a2e0ce78a6cb53526ec04ac19716a86b08a93df48d178f8b77e5619610160820151527f118623e6bc136ee6d3f9907cd4ad04a9418ea03ba99ad753227cdfee598e8415602061016083015101527f0861d1997761a852226aac7ba9717bf6ae56451099be774cdf02ef352a58cbc8610180820151527f0805e392bcbc12e40a722778632d73fe981e4bc6fa6d1178b70af7be1cb9a3a3602061018083015101527f101d1e3978cb9f1e303d413144ebe67682c9eb0cfe11242959aa6029d78cdbbc6101a0820151527f089eb9c727e6cb07082bc3e6f40cf04f439fe48000602b584774dad7efc6607c60206101a083015101527f2d489f2493263aa873bcd94f21efb45bf257a61d81c0c95c3297916506653b406101c0820151527f18e45d627aadd4df2794ecd9909fac1a753f0c6fa8a9c6654a7a58b0912fffd560206101c083015101527f0e43e3a4b13cb438e2ad924614261ad0240214fa1c83fcda6a0bf779eb39ffc56101e0820151527f0eaba9f429c5f6fc3103d4cc4056c500ff42425d8e6465c5b8e145219f9c5cd360206101e083015101527f29ae351d09dcf41c0a80ab05393738358baab37e6fbc464b3bb13258994a1fa4610200820151527f2b7bc74608d7ec7dadd0597d6a4010d8bfc2b31900281901cedc42bdbb0fb8fc602061020083015101527f066802c7ceb9e913d4f65433a20661e097acac1affecbb534a54f76a29782226610220820151527f27ec80e811e636f3348267923c8e641bd98a7e37c5216670cbff14ae323f9e0e602061022083015101527f12604d1f87c583f6c9710c73eaf590af9d07aa743d1381d0e9dff0eab2614239610240820151527f1588579e6c3378ea32cb641205ef762a63cd353a0bd670394528ad2081ee8dd4602061024083015101527f247d65261d3a4ab042ba937331f6d0c0c5eb9ea78753a92084db1a6939e19e82610260820151527f2ce6cc664a32147bfe6a0c94a95bf0496679405ccae01648cd4ec021145120d56020610260830151015290565b604080516008808252610120820190925260609160009190602082016101008036833701905050905060025481600081518110611944576119446129f2565b60200260200101818152505082600001516001600160401b031681600181518110611971576119716129f2565b60200260200101818152505082602001516001600160401b03168160028151811061199e5761199e6129f2565b6020026020010181815250508260400151816003815181106119c2576119c26129f2565b6020026020010181815250508260600151816004815181106119e6576119e66129f2565b602002602001018181525050600560007f000000000000000000000000000000000000000000000000000000000000000063ffffffff1663ffffffff1681526020019081526020016000206003015481600581518110611a4857611a486129f2565b602002602001018181525050600560007f000000000000000000000000000000000000000000000000000000000000000063ffffffff1663ffffffff1681526020019081526020016000206004015481600681518110611aaa57611aaa6129f2565b602002602001018181525050600560007f000000000000000000000000000000000000000000000000000000000000000063ffffffff1663ffffffff1681526020019081526020016000206005015481600781518110611b0c57611b0c6129f2565b602090810291909101015292915050565b611b2682611bc4565b6040516001600160a01b038316907fbc7cd75a20ee27fd9adebab32041f755214dbc6bffa90cc0225b39da2e5c2d3b90600090a2805115611b6b57610f4a8282611c29565b61086a611c9f565b7ff0c57e16840df040f15088dc2f81fe391c3923bec73e23a9662efc9c229c6a0054600160401b900460ff166109be57604051631afcd79f60e31b815260040160405180910390fd5b610abb611b73565b806001600160a01b03163b600003611bfa57604051634c9c8ce360e01b81526001600160a01b0382166004820152602401610656565b600080516020612a2583398151915280546001600160a01b0319166001600160a01b0392909216919091179055565b6060600080846001600160a01b031684604051611c469190612a08565b600060405180830381855af49150503d8060008114611c81576040519150601f19603f3d011682016040523d82523d6000602084013e611c86565b606091505b5091509150611c96858383611cbe565b95945050505050565b34156109be5760405163b398979f60e01b815260040160405180910390fd5b606082611cd357611cce82611d1d565b611d16565b8151158015611cea57506001600160a01b0384163b155b15611d1357604051639996b31560e01b81526001600160a01b0385166004820152602401610656565b50805b9392505050565b805115611d2d5780518082602001fd5b604051630a12f52160e11b815260040160405180910390fd5b60405180610100016040528060006001600160401b0316815260200160006001600160401b031681526020016000815260200160008152602001600081526020016000815260200160008152602001600081525090565b6040518061028001604052806000815260200160008152602001611dd4604051806040016040528060008152602001600081525090565b8152602001611df6604051806040016040528060008152602001600081525090565b8152602001611e18604051806040016040528060008152602001600081525090565b8152602001611e3a604051806040016040528060008152602001600081525090565b8152602001611e5c604051806040016040528060008152602001600081525090565b8152602001611e7e604051806040016040528060008152602001600081525090565b8152602001611ea0604051806040016040528060008152602001600081525090565b8152602001611ec2604051806040016040528060008152602001600081525090565b8152602001611ee4604051806040016040528060008152602001600081525090565b8152602001611f06604051806040016040528060008152602001600081525090565b8152602001611f28604051806040016040528060008152602001600081525090565b8152602001611f4a604051806040016040528060008152602001600081525090565b8152602001611f6c604051806040016040528060008152602001600081525090565b8152602001611f8e604051806040016040528060008152602001600081525090565b8152602001611fb0604051806040016040528060008152602001600081525090565b8152602001611fd2604051806040016040528060008152602001600081525090565b8152602001611ff4604051806040016040528060008152602001600081525090565b8152602001612016604051806040016040528060008152602001600081525090565b905290565b634e487b7160e01b600052604160045260246000fd5b6040516102e081016001600160401b03811182821017156120545761205461201b565b60405290565b604051601f8201601f191681016001600160401b03811182821017156120825761208261201b565b604052919050565b80356001600160401b03811681146120a157600080fd5b919050565b60006101008083850312156120ba57600080fd5b604051908101906001600160401b03821181831017156120dc576120dc61201b565b816040528092506120ec8461208a565b81526120fa6020850161208a565b602082015260408401356040820152606084013560608201526080840135608082015260a084013560a082015260c084013560c082015260e084013560e0820152505092915050565b60006040828403121561215557600080fd5b604051604081018181106001600160401b03821117156121775761217761201b565b604052823581526020928301359281019290925250919050565b6000808284036105808112156121a657600080fd5b6121b085856120a6565b92506101006104808060ff19840112156121c957600080fd5b6121d1612031565b92506121df87838801612143565b83526101406121f088828901612143565b602085015261018061220489828a01612143565b60408601526101c06122188a828b01612143565b606087015261020061222c8b828c01612143565b60808801526102406122408c828d01612143565b60a08901526102806122548d828e01612143565b60c08a01526102c06122688e828f01612143565b60e08b015261227b8e6103008f01612143565b898b015261228d8e6103408f01612143565b6101208b01526122a18e6103808f01612143565b878b01526122b38e6103c08f01612143565b6101608b01526122c78e6104008f01612143565b868b01526104408d01356101a08b01526104608d0135858b0152878d01356101e08b01526104a08d0135848b01526104c08d01356102208b01526104e08d0135838b01526105008d01356102608b01526105208d0135828b01526105408d01356102a08b01526105608d0135818b0152505050505050505050809150509250929050565b80356001600160a01b03811681146120a157600080fd5b6000806040838503121561237557600080fd5b61237e8361234b565b91506020808401356001600160401b038082111561239b57600080fd5b818601915086601f8301126123af57600080fd5b8135818111156123c1576123c161201b565b6123d3601f8201601f1916850161205a565b915080825287848285010111156123e957600080fd5b80848401858401376000848284010152508093505050509250929050565b803563ffffffff811681146120a157600080fd5b600080610120838503121561242f57600080fd5b61243984846120a6565b91506124486101008401612407565b90509250929050565b60006020828403121561246357600080fd5b611d1682612407565b6000610100828403121561247f57600080fd5b611d1683836120a6565b60005b838110156124a457818101518382015260200161248c565b50506000910152565b600081518084526124c5816020860160208601612489565b601f01601f19169290920160200192915050565b602081526000611d1660208301846124ad565b6000602082840312156124fe57600080fd5b611d168261234b565b634e487b7160e01b600052601160045260246000fd5b6001600160401b0381811683821602808216919082811461254057612540612507565b505092915050565b6001600160401b0381811683821601908082111561256857612568612507565b5092915050565b60008151808452602080850194506020840160005b838110156125a057815187529582019590820190600101612584565b509495945050505050565b6125c082825180518252602090810151910152565b6020818101518051604085015290810151606084015250604081015180516080840152602081015160a0840152506060810151805160c0840152602081015160e08401525060808101516101006126238185018380518252602090810151910152565b60a083015191506101406126438186018480518252602090810151910152565b60c084015192506101806126638187018580518252602090810151910152565b60e085015193506101c06126838188018680518252602090810151910152565b928501519350610200926126a38785018680518252602090810151910152565b61012086015194506102406126c48189018780518252602090810151910152565b928601519450610280926126e48885018780518252602090810151910152565b61016087015195506102c0612705818a018880518252602090810151910152565b9287015180516103008a0152602001516103208901526101a0870151610340890152908601516103608801526101e0860151610380880152928501516103a08701526102208501516103c0870152918401516103e08601526102608401516104008601528301516104208501526102a0830151610440850152909101516104609092019190915250565b6000610980865183526020870151602084015260408701516127be604085018280518252602090810151910152565b50606087015180516080850152602081015160a0850152506080870151805160c0850152602081015160e08501525060a087015161010061280b8186018380518252602090810151910152565b60c0890151915061014061282b8187018480518252602090810151910152565b60e08a0151925061018061284b8188018580518252602090810151910152565b918a015192506101c09161286b8784018580518252602090810151910152565b6101208b0151935061020061288c8189018680518252602090810151910152565b918b01519350610240916128ac8884018680518252602090810151910152565b6101608c015180516102808a01526020908101516102a08a0152918c015180516102c08a01528201516102e08901526101a08c015180516103008a0152820151610320890152928b015180516103408901528101516103608801526101e08b015180516103808901528101516103a0880152918a015180516103c08801528201516103e08701526102208a015180516104008801528201516104208701528901518051610440870152810151610460860152610260890151805161048087015201516104a0850152506104c083018190526129898184018761256f565b90506129996104e08401866125ab565b8281036109608401526129ac81856124ad565b979650505050505050565b6000602082840312156129c957600080fd5b81518015158114611d1657600080fd5b6000602082840312156129eb57600080fd5b5051919050565b634e487b7160e01b600052603260045260246000fd5b60008251612a1a818460208701612489565b919091019291505056fe360894a13ba1a3210667c828492db98dca3e2076cc3735a920a3ca505d382bbca164736f6c6343000817000a","linkReferences":{"contracts/src/libraries/PlonkVerifier.sol":{"PlonkVerifier":[{"start":3753,"length":20}]}}},"methodIdentifiers":{"MAJOR()":"1c41cc5f","MINOR()":"4bc96225","PATCH()":"057729e4","UPGRADE_INTERFACE_VERSION()":"ad3cb1cc","blocksPerEpoch()":"f0682054","computeStakeTableComm((uint64,uint64,uint256,uint256,uint256,uint256,uint256,uint256))":"aa922732","currentEpoch()":"76671808","frozenStakeTableCommitment()":"382b215a","frozenThreshold()":"ca6fe855","getFinalizedState()":"82d07ff3","getGenesisState()":"4847ae5d","initialize((uint64,uint64,uint256,uint256,uint256,uint256,uint256,uint256),uint32)":"5420d15d","newFinalizedState((uint64,uint64,uint256,uint256,uint256,uint256,uint256,uint256),((uint256,uint256),(uint256,uint256),(uint256,uint256),(uint256,uint256),(uint256,uint256),(uint256,uint256),(uint256,uint256),(uint256,uint256),(uint256,uint256),(uint256,uint256),(uint256,uint256),(uint256,uint256),(uint256,uint256),uint256,uint256,uint256,uint256,uint256,uint256,uint256,uint256,uint256,uint256))":"409939b7","owner()":"8da5cb5b","proxiableUUID()":"52d1902d","renounceOwnership()":"715018a6","states(uint32)":"7f17baad","transferOwnership(address)":"f2fde38b","upgradeToAndCall(address,bytes)":"4f1ef286","votingStakeTableCommitment()":"76b6b7cb","votingThreshold()":"62827733"},"id":44}